{
  "contractName": "UserData",
  "abi": [
    {
      "inputs": [],
      "name": "userCount",
      "outputs": [
        {
          "internalType": "uint256",
          "name": "",
          "type": "uint256"
        }
      ],
      "stateMutability": "view",
      "type": "function",
      "constant": true
    },
    {
      "inputs": [
        {
          "internalType": "string",
          "name": "",
          "type": "string"
        }
      ],
      "name": "users",
      "outputs": [
        {
          "internalType": "string",
          "name": "adhaarNumber",
          "type": "string"
        },
        {
          "internalType": "string",
          "name": "firstname",
          "type": "string"
        },
        {
          "internalType": "string",
          "name": "middlename",
          "type": "string"
        },
        {
          "internalType": "string",
          "name": "lastname",
          "type": "string"
        },
        {
          "internalType": "string",
          "name": "dob",
          "type": "string"
        },
        {
          "internalType": "string",
          "name": "address_1",
          "type": "string"
        },
        {
          "internalType": "string",
          "name": "address_2",
          "type": "string"
        },
        {
          "internalType": "string",
          "name": "contactNo",
          "type": "string"
        },
        {
          "internalType": "string",
          "name": "pincode",
          "type": "string"
        },
        {
          "internalType": "string",
          "name": "profile_pic",
          "type": "string"
        },
        {
          "internalType": "string",
          "name": "adhaar_pic",
          "type": "string"
        },
        {
          "internalType": "string",
          "name": "isVerified",
          "type": "string"
        }
      ],
      "stateMutability": "view",
      "type": "function",
      "constant": true
    },
    {
      "inputs": [
        {
          "internalType": "string",
          "name": "_adhaarNumber",
          "type": "string"
        },
        {
          "internalType": "string",
          "name": "_firstname",
          "type": "string"
        },
        {
          "internalType": "string",
          "name": "_middlename",
          "type": "string"
        },
        {
          "internalType": "string",
          "name": "_lastname",
          "type": "string"
        },
        {
          "internalType": "string",
          "name": "_dob",
          "type": "string"
        },
        {
          "internalType": "string",
          "name": "_address_1",
          "type": "string"
        },
        {
          "internalType": "string",
          "name": "_address_2",
          "type": "string"
        },
        {
          "internalType": "string",
          "name": "_contactNo",
          "type": "string"
        },
        {
          "internalType": "string",
          "name": "_pincode",
          "type": "string"
        },
        {
          "internalType": "string",
          "name": "profile_pic",
          "type": "string"
        },
        {
          "internalType": "string",
          "name": "adhaar_pic",
          "type": "string"
        }
      ],
      "name": "addUser",
      "outputs": [],
      "stateMutability": "nonpayable",
      "type": "function"
    },
    {
      "inputs": [
        {
          "internalType": "string",
          "name": "_adhaarNumber",
          "type": "string"
        },
        {
          "internalType": "string",
          "name": "_firstname",
          "type": "string"
        },
        {
          "internalType": "string",
          "name": "_middlename",
          "type": "string"
        },
        {
          "internalType": "string",
          "name": "_lastname",
          "type": "string"
        },
        {
          "internalType": "string",
          "name": "_dob",
          "type": "string"
        },
        {
          "internalType": "string",
          "name": "_address_1",
          "type": "string"
        },
        {
          "internalType": "string",
          "name": "_address_2",
          "type": "string"
        },
        {
          "internalType": "string",
          "name": "_contactNo",
          "type": "string"
        },
        {
          "internalType": "string",
          "name": "_pincode",
          "type": "string"
        },
        {
          "internalType": "string",
          "name": "profile_pic",
          "type": "string"
        },
        {
          "internalType": "string",
          "name": "adhaar_pic",
          "type": "string"
        }
      ],
      "name": "updateUser",
      "outputs": [],
      "stateMutability": "nonpayable",
      "type": "function"
    },
    {
      "inputs": [
        {
          "internalType": "string",
          "name": "_adhaarNo",
          "type": "string"
        }
      ],
      "name": "getUser",
      "outputs": [
        {
          "internalType": "string",
          "name": "",
          "type": "string"
        },
        {
          "internalType": "string",
          "name": "",
          "type": "string"
        },
        {
          "internalType": "string",
          "name": "",
          "type": "string"
        },
        {
          "internalType": "string",
          "name": "",
          "type": "string"
        },
        {
          "internalType": "string",
          "name": "",
          "type": "string"
        },
        {
          "internalType": "string",
          "name": "",
          "type": "string"
        },
        {
          "internalType": "string",
          "name": "",
          "type": "string"
        },
        {
          "internalType": "string",
          "name": "",
          "type": "string"
        },
        {
          "internalType": "string",
          "name": "",
          "type": "string"
        },
        {
          "internalType": "string",
          "name": "",
          "type": "string"
        },
        {
          "internalType": "string",
          "name": "",
          "type": "string"
        },
        {
          "internalType": "string",
          "name": "",
          "type": "string"
        }
      ],
      "stateMutability": "view",
      "type": "function",
      "constant": true
    }
  ],
  "bytecode": "0x6080604052600060015534801561001557600080fd5b50611af9806100256000396000f3fe608060405234801561001057600080fd5b50600436106100575760003560e01c806307973ccf1461005c578063311cc8311461007a57806331feb67114610096578063689e1c03146100d15780639f1f17fd1461010c575b600080fd5b610064610128565b604051610071919061141d565b60405180910390f35b610094600480360381019061008f9190611592565b61012e565b005b6100b060048036038101906100ab91906117ba565b61035b565b6040516100c89c9b9a9998979695949392919061188b565b60405180910390f35b6100eb60048036038101906100e691906117ba565b610a76565b6040516101039c9b9a9998979695949392919061188b565b60405180910390f35b61012660048036038101906101219190611592565b61114c565b005b60015481565b60016000815480929190610141906119c8565b91905055506040518061018001604052808c81526020018b81526020018a81526020018981526020018881526020018781526020018681526020018581526020018481526020018381526020018281526020016040518060400160405280600481526020017f747275650000000000000000000000000000000000000000000000000000000081525081525060008c6040516101dd9190611a4c565b90815260200160405180910390206000820151816000019080519060200190610207929190611361565b506020820151816001019080519060200190610224929190611361565b506040820151816002019080519060200190610241929190611361565b50606082015181600301908051906020019061025e929190611361565b50608082015181600401908051906020019061027b929190611361565b5060a0820151816005019080519060200190610298929190611361565b5060c08201518160060190805190602001906102b5929190611361565b5060e08201518160070190805190602001906102d2929190611361565b506101008201518160080190805190602001906102f0929190611361565b5061012082015181600901908051906020019061030e929190611361565b5061014082015181600a01908051906020019061032c929190611361565b5061016082015181600b01908051906020019061034a929190611361565b509050505050505050505050505050565b6060806060806060806060806060806060806000808e60405161037e9190611a4c565b90815260200160405180910390209050806000018160010182600201836003018460040185600501866006018760070188600801896009018a600a018b600b018b80546103ca90611a92565b80601f01602080910402602001604051908101604052809291908181526020018280546103f690611a92565b80156104435780601f1061041857610100808354040283529160200191610443565b820191906000526020600020905b81548152906001019060200180831161042657829003601f168201915b50505050509b508a805461045690611a92565b80601f016020809104026020016040519081016040528092919081815260200182805461048290611a92565b80156104cf5780601f106104a4576101008083540402835291602001916104cf565b820191906000526020600020905b8154815290600101906020018083116104b257829003601f168201915b50505050509a508980546104e290611a92565b80601f016020809104026020016040519081016040528092919081815260200182805461050e90611a92565b801561055b5780601f106105305761010080835404028352916020019161055b565b820191906000526020600020905b81548152906001019060200180831161053e57829003601f168201915b5050505050995088805461056e90611a92565b80601f016020809104026020016040519081016040528092919081815260200182805461059a90611a92565b80156105e75780601f106105bc576101008083540402835291602001916105e7565b820191906000526020600020905b8154815290600101906020018083116105ca57829003601f168201915b505050505098508780546105fa90611a92565b80601f016020809104026020016040519081016040528092919081815260200182805461062690611a92565b80156106735780601f1061064857610100808354040283529160200191610673565b820191906000526020600020905b81548152906001019060200180831161065657829003601f168201915b5050505050975086805461068690611a92565b80601f01602080910402602001604051908101604052809291908181526020018280546106b290611a92565b80156106ff5780601f106106d4576101008083540402835291602001916106ff565b820191906000526020600020905b8154815290600101906020018083116106e257829003601f168201915b5050505050965085805461071290611a92565b80601f016020809104026020016040519081016040528092919081815260200182805461073e90611a92565b801561078b5780601f106107605761010080835404028352916020019161078b565b820191906000526020600020905b81548152906001019060200180831161076e57829003601f168201915b5050505050955084805461079e90611a92565b80601f01602080910402602001604051908101604052809291908181526020018280546107ca90611a92565b80156108175780601f106107ec57610100808354040283529160200191610817565b820191906000526020600020905b8154815290600101906020018083116107fa57829003601f168201915b5050505050945083805461082a90611a92565b80601f016020809104026020016040519081016040528092919081815260200182805461085690611a92565b80156108a35780601f10610878576101008083540402835291602001916108a3565b820191906000526020600020905b81548152906001019060200180831161088657829003601f168201915b505050505093508280546108b690611a92565b80601f01602080910402602001604051908101604052809291908181526020018280546108e290611a92565b801561092f5780601f106109045761010080835404028352916020019161092f565b820191906000526020600020905b81548152906001019060200180831161091257829003601f168201915b5050505050925081805461094290611a92565b80601f016020809104026020016040519081016040528092919081815260200182805461096e90611a92565b80156109bb5780601f10610990576101008083540402835291602001916109bb565b820191906000526020600020905b81548152906001019060200180831161099e57829003601f168201915b505050505091508080546109ce90611a92565b80601f01602080910402602001604051908101604052809291908181526020018280546109fa90611a92565b8015610a475780601f10610a1c57610100808354040283529160200191610a47565b820191906000526020600020905b815481529060010190602001808311610a2a57829003601f168201915b505050505090509c509c509c509c509c509c509c509c509c509c509c509c505091939597999b5091939597999b565b600081805160208101820180518482526020830160208501208183528095505050505050600091509050806000018054610aaf90611a92565b80601f0160208091040260200160405190810160405280929190818152602001828054610adb90611a92565b8015610b285780601f10610afd57610100808354040283529160200191610b28565b820191906000526020600020905b815481529060010190602001808311610b0b57829003601f168201915b505050505090806001018054610b3d90611a92565b80601f0160208091040260200160405190810160405280929190818152602001828054610b6990611a92565b8015610bb65780601f10610b8b57610100808354040283529160200191610bb6565b820191906000526020600020905b815481529060010190602001808311610b9957829003601f168201915b505050505090806002018054610bcb90611a92565b80601f0160208091040260200160405190810160405280929190818152602001828054610bf790611a92565b8015610c445780601f10610c1957610100808354040283529160200191610c44565b820191906000526020600020905b815481529060010190602001808311610c2757829003601f168201915b505050505090806003018054610c5990611a92565b80601f0160208091040260200160405190810160405280929190818152602001828054610c8590611a92565b8015610cd25780601f10610ca757610100808354040283529160200191610cd2565b820191906000526020600020905b815481529060010190602001808311610cb557829003601f168201915b505050505090806004018054610ce790611a92565b80601f0160208091040260200160405190810160405280929190818152602001828054610d1390611a92565b8015610d605780601f10610d3557610100808354040283529160200191610d60565b820191906000526020600020905b815481529060010190602001808311610d4357829003601f168201915b505050505090806005018054610d7590611a92565b80601f0160208091040260200160405190810160405280929190818152602001828054610da190611a92565b8015610dee5780601f10610dc357610100808354040283529160200191610dee565b820191906000526020600020905b815481529060010190602001808311610dd157829003601f168201915b505050505090806006018054610e0390611a92565b80601f0160208091040260200160405190810160405280929190818152602001828054610e2f90611a92565b8015610e7c5780601f10610e5157610100808354040283529160200191610e7c565b820191906000526020600020905b815481529060010190602001808311610e5f57829003601f168201915b505050505090806007018054610e9190611a92565b80601f0160208091040260200160405190810160405280929190818152602001828054610ebd90611a92565b8015610f0a5780601f10610edf57610100808354040283529160200191610f0a565b820191906000526020600020905b815481529060010190602001808311610eed57829003601f168201915b505050505090806008018054610f1f90611a92565b80601f0160208091040260200160405190810160405280929190818152602001828054610f4b90611a92565b8015610f985780601f10610f6d57610100808354040283529160200191610f98565b820191906000526020600020905b815481529060010190602001808311610f7b57829003601f168201915b505050505090806009018054610fad90611a92565b80601f0160208091040260200160405190810160405280929190818152602001828054610fd990611a92565b80156110265780601f10610ffb57610100808354040283529160200191611026565b820191906000526020600020905b81548152906001019060200180831161100957829003601f168201915b50505050509080600a01805461103b90611a92565b80601f016020809104026020016040519081016040528092919081815260200182805461106790611a92565b80156110b45780601f10611089576101008083540402835291602001916110b4565b820191906000526020600020905b81548152906001019060200180831161109757829003601f168201915b50505050509080600b0180546110c990611a92565b80601f01602080910402602001604051908101604052809291908181526020018280546110f590611a92565b80156111425780601f1061111757610100808354040283529160200191611142565b820191906000526020600020905b81548152906001019060200180831161112557829003601f168201915b505050505090508c565b6040518061018001604052808c81526020018b81526020018a81526020018981526020018881526020018781526020018681526020018581526020018481526020018381526020018281526020016040518060400160405280600481526020017f747275650000000000000000000000000000000000000000000000000000000081525081525060008c6040516111e39190611a4c565b9081526020016040518091039020600082015181600001908051906020019061120d929190611361565b50602082015181600101908051906020019061122a929190611361565b506040820151816002019080519060200190611247929190611361565b506060820151816003019080519060200190611264929190611361565b506080820151816004019080519060200190611281929190611361565b5060a082015181600501908051906020019061129e929190611361565b5060c08201518160060190805190602001906112bb929190611361565b5060e08201518160070190805190602001906112d8929190611361565b506101008201518160080190805190602001906112f6929190611361565b50610120820151816009019080519060200190611314929190611361565b5061014082015181600a019080519060200190611332929190611361565b5061016082015181600b019080519060200190611350929190611361565b509050505050505050505050505050565b82805461136d90611a92565b90600052602060002090601f01602090048101928261138f57600085556113d6565b82601f106113a857805160ff19168380011785556113d6565b828001600101855582156113d6579182015b828111156113d55782518255916020019190600101906113ba565b5b5090506113e391906113e7565b5090565b5b808211156114005760008160009055506001016113e8565b5090565b6000819050919050565b61141781611404565b82525050565b6000602082019050611432600083018461140e565b92915050565b6000604051905090565b600080fd5b600080fd5b600080fd5b600080fd5b6000601f19601f8301169050919050565b7f4e487b7100000000000000000000000000000000000000000000000000000000600052604160045260246000fd5b61149f82611456565b810181811067ffffffffffffffff821117156114be576114bd611467565b5b80604052505050565b60006114d1611438565b90506114dd8282611496565b919050565b600067ffffffffffffffff8211156114fd576114fc611467565b5b61150682611456565b9050602081019050919050565b82818337600083830152505050565b6000611535611530846114e2565b6114c7565b90508281526020810184848401111561155157611550611451565b5b61155c848285611513565b509392505050565b600082601f8301126115795761157861144c565b5b8135611589848260208601611522565b91505092915050565b60008060008060008060008060008060006101608c8e0312156115b8576115b7611442565b5b60008c013567ffffffffffffffff8111156115d6576115d5611447565b5b6115e28e828f01611564565b9b505060208c013567ffffffffffffffff81111561160357611602611447565b5b61160f8e828f01611564565b9a505060408c013567ffffffffffffffff8111156116305761162f611447565b5b61163c8e828f01611564565b99505060608c013567ffffffffffffffff81111561165d5761165c611447565b5b6116698e828f01611564565b98505060808c013567ffffffffffffffff81111561168a57611689611447565b5b6116968e828f01611564565b97505060a08c013567ffffffffffffffff8111156116b7576116b6611447565b5b6116c38e828f01611564565b96505060c08c013567ffffffffffffffff8111156116e4576116e3611447565b5b6116f08e828f01611564565b95505060e08c013567ffffffffffffffff81111561171157611710611447565b5b61171d8e828f01611564565b9450506101008c013567ffffffffffffffff81111561173f5761173e611447565b5b61174b8e828f01611564565b9350506101208c013567ffffffffffffffff81111561176d5761176c611447565b5b6117798e828f01611564565b9250506101408c013567ffffffffffffffff81111561179b5761179a611447565b5b6117a78e828f01611564565b9150509295989b509295989b9093969950565b6000602082840312156117d0576117cf611442565b5b600082013567ffffffffffffffff8111156117ee576117ed611447565b5b6117fa84828501611564565b91505092915050565b600081519050919050565b600082825260208201905092915050565b60005b8381101561183d578082015181840152602081019050611822565b8381111561184c576000848401525b50505050565b600061185d82611803565b611867818561180e565b935061187781856020860161181f565b61188081611456565b840191505092915050565b60006101808201905081810360008301526118a6818f611852565b905081810360208301526118ba818e611852565b905081810360408301526118ce818d611852565b905081810360608301526118e2818c611852565b905081810360808301526118f6818b611852565b905081810360a083015261190a818a611852565b905081810360c083015261191e8189611852565b905081810360e08301526119328188611852565b90508181036101008301526119478187611852565b905081810361012083015261195c8186611852565b90508181036101408301526119718185611852565b90508181036101608301526119868184611852565b90509d9c50505050505050505050505050565b7f4e487b7100000000000000000000000000000000000000000000000000000000600052601160045260246000fd5b60006119d382611404565b91507fffffffffffffffffffffffffffffffffffffffffffffffffffffffffffffffff8203611a0557611a04611999565b5b600182019050919050565b600081905092915050565b6000611a2682611803565b611a308185611a10565b9350611a4081856020860161181f565b80840191505092915050565b6000611a588284611a1b565b915081905092915050565b7f4e487b7100000000000000000000000000000000000000000000000000000000600052602260045260246000fd5b60006002820490506001821680611aaa57607f821691505b602082108103611abd57611abc611a63565b5b5091905056fea2646970667358221220032347475ccae49fd34c6fe1999770777166640976768ebf67db0eb343dae22364736f6c634300080d0033",
  "immutableReferences": {},
  "source": "// SPDX-License-Identifier: MIT \npragma solidity >=0.4.22 <0.9.0;\n\ncontract UserData{\n \n    // data to be stored\n    struct User{\n        string adhaarNumber;\n        string firstname;\n        string middlename;\n        string lastname;\n        string dob;\n        string address_1;\n        string address_2;\n        string contactNo;\n        string pincode;\n        string profile_pic;\n        string adhaar_pic;\n        string isVerified;\n    }\n\n    // mappping in key value pair\n    mapping(string => User) public users;\n\n    // count of users\n    uint public userCount = 0;\n\n    function addUser(string memory _adhaarNumber,string memory _firstname,string memory _middlename,string memory _lastname,string memory _dob,string memory _address_1,string memory _address_2,string memory _contactNo,string memory _pincode,string memory profile_pic,string memory adhaar_pic) external {\n        userCount++;\n        users[_adhaarNumber] = User(_adhaarNumber,_firstname,_middlename,_lastname,_dob,_address_1,_address_2,_contactNo,_pincode,profile_pic,adhaar_pic,'true');\n    }\n    \n    function updateUser(string memory _adhaarNumber,string memory _firstname,string memory _middlename,string memory _lastname,string memory _dob,string memory _address_1,string memory _address_2,string memory _contactNo,string memory _pincode,string memory profile_pic,string memory adhaar_pic) external {\n        users[_adhaarNumber] = User(_adhaarNumber,_firstname,_middlename,_lastname,_dob,_address_1,_address_2,_contactNo,_pincode,profile_pic,adhaar_pic,'true');\n    }\n\n    function getUser(string memory _adhaarNo) public view returns (string memory,string memory,string memory,string memory,string memory,string memory,string memory,string memory,string memory,string memory,string memory,string memory) {\n        User storage userData = users[_adhaarNo];\n        return ( userData.adhaarNumber, userData.firstname, userData.middlename,  userData.lastname, userData.dob, userData.address_1, userData.address_2,userData.contactNo, userData.pincode, userData.profile_pic,userData.adhaar_pic,userData.isVerified);\n    }\n}\n",
  "sourcePath": "C:\\Users\\OM SAI RAM\\Desktop\\blockchain-project\\e-user-verification-system\\server\\contracts\\UserData.sol",
  "compiler": {
    "name": "solc",
    "version": "0.8.13+commit.abaa5c0e.Emscripten.clang"
  },
  "schemaVersion": "3.4.16",
  "updatedAt": "2024-03-03T11:48:15.634Z",
  "networkType": "ethereum",
  "devdoc": {
    "kind": "dev",
    "methods": {},
    "version": 1
  },
  "userdoc": {
    "kind": "user",
    "methods": {},
    "version": 1
  }
}